{
    "contractName": "MappingStructs",
    "abi": [
        {
            "inputs": [
                {
                    "internalType": "uint256",
                    "name": "_key",
                    "type": "uint256"
                }
            ],
            "name": "getAllValue",
            "outputs": [
                {
                    "components": [
                        {
                            "internalType": "uint256",
                            "name": "myUint",
                            "type": "uint256"
                        },
                        {
                            "internalType": "string",
                            "name": "myString",
                            "type": "string"
                        }
                    ],
                    "internalType": "struct MappingStructs.Test",
                    "name": "",
                    "type": "tuple"
                }
            ],
            "stateMutability": "view",
            "type": "function"
        },
        {
            "inputs": [
                {
                    "internalType": "address",
                    "name": "_addr",
                    "type": "address"
                }
            ],
            "name": "getMapInsideAStruct",
            "outputs": [
                {
                    "internalType": "bool",
                    "name": "",
                    "type": "bool"
                }
            ],
            "stateMutability": "view",
            "type": "function"
        },
        {
            "inputs": [
                {
                    "internalType": "uint256",
                    "name": "_str",
                    "type": "uint256"
                }
            ],
            "name": "getStringValue",
            "outputs": [
                {
                    "internalType": "string",
                    "name": "",
                    "type": "string"
                }
            ],
            "stateMutability": "view",
            "type": "function"
        },
        {
            "inputs": [
                {
                    "internalType": "uint256",
                    "name": "_key",
                    "type": "uint256"
                }
            ],
            "name": "getUintValue",
            "outputs": [
                {
                    "internalType": "uint256",
                    "name": "",
                    "type": "uint256"
                }
            ],
            "stateMutability": "view",
            "type": "function"
        },
        {
            "inputs": [
                {
                    "internalType": "uint256",
                    "name": "",
                    "type": "uint256"
                }
            ],
            "name": "myMapping",
            "outputs": [
                {
                    "internalType": "uint256",
                    "name": "myUint",
                    "type": "uint256"
                },
                {
                    "internalType": "string",
                    "name": "myString",
                    "type": "string"
                }
            ],
            "stateMutability": "view",
            "type": "function"
        },
        {
            "inputs": [
                {
                    "internalType": "uint256",
                    "name": "key",
                    "type": "uint256"
                }
            ],
            "name": "nullifyStruct",
            "outputs": [],
            "stateMutability": "nonpayable",
            "type": "function"
        },
        {
            "inputs": [
                {
                    "internalType": "address",
                    "name": "_addr",
                    "type": "address"
                }
            ],
            "name": "setMapInsideAStruct",
            "outputs": [],
            "stateMutability": "nonpayable",
            "type": "function"
        },
        {
            "inputs": [
                {
                    "internalType": "uint256",
                    "name": "key",
                    "type": "uint256"
                },
                {
                    "internalType": "uint256",
                    "name": "_myUint",
                    "type": "uint256"
                },
                {
                    "internalType": "string",
                    "name": "_myString",
                    "type": "string"
                }
            ],
            "name": "setMapping",
            "outputs": [],
            "stateMutability": "nonpayable",
            "type": "function"
        },
        {
            "inputs": [
                {
                    "internalType": "uint256",
                    "name": "_key",
                    "type": "uint256"
                },
                {
                    "internalType": "string",
                    "name": "_setString",
                    "type": "string"
                }
            ],
            "name": "setOnlyString",
            "outputs": [],
            "stateMutability": "nonpayable",
            "type": "function"
        },
        {
            "inputs": [
                {
                    "internalType": "uint256",
                    "name": "_key",
                    "type": "uint256"
                },
                {
                    "internalType": "uint256",
                    "name": "_setValue",
                    "type": "uint256"
                }
            ],
            "name": "setOnlyUint",
            "outputs": [],
            "stateMutability": "nonpayable",
            "type": "function"
        }
    ],
    "bytecode": "608060405234801561001057600080fd5b5061097c806100206000396000f3fe608060405234801561001057600080fd5b506004361061009e5760003560e01c8063a6ffd60011610066578063a6ffd6001461014d578063c0c116d51461017b578063d02e87f71461019b578063f6d5692e146101bb578063f9c3b027146101ce57600080fd5b806318cb523e146100a35780632a412f5a146100b85780635921f5f7146100f05780637c668844146101035780639ccb957b1461012d575b600080fd5b6100b66100b13660046104ec565b610210565b005b6100b66100c63660046105b0565b6001600160a01b03166000908152602081815260408083209091529020805460ff19166001179055565b6100b66100fe3660046105e0565b610255565b61011661011136600461065c565b610278565b6040516101249291906106c2565b60405180910390f35b61014061013b36600461065c565b61031c565b60405161012491906106e3565b61016d61015b36600461065c565b60009081526001602052604090205490565b604051908152602001610124565b61018e61018936600461065c565b6103ea565b6040516101249190610708565b6100b66101a936600461071b565b60009182526001602052604090912055565b6100b66101c936600461065c565b610491565b6102006101dc3660046105b0565b6001600160a01b031660009081526020818152604080832090915290205460ff1690565b6040519015158152602001610124565b604080518082018252838152602080820184815260008781526001928390529390932082518155925191928392909182019061024c90826107c6565b50505050505050565b600083815260016020819052604090912001610272828483610886565b50505050565b6001602081905260009182526040909120805491810180546102999061073d565b80601f01602080910402602001604051908101604052809291908181526020018280546102c59061073d565b80156103125780601f106102e757610100808354040283529160200191610312565b820191906000526020600020905b8154815290600101906020018083116102f557829003601f168201915b5050505050905082565b6040805180820190915260008152606060208201526000828152600160208181526040928390208351808501909452805484529182018054918401916103619061073d565b80601f016020809104026020016040519081016040528092919081815260200182805461038d9061073d565b80156103da5780601f106103af576101008083540402835291602001916103da565b820191906000526020600020905b8154815290600101906020018083116103bd57829003601f168201915b5050505050815250509050919050565b60008181526001602081905260408220018054606092919061040b9061073d565b80601f01602080910402602001604051908101604052809291908181526020018280546104379061073d565b80156104845780601f1061045957610100808354040283529160200191610484565b820191906000526020600020905b81548152906001019060200180831161046757829003601f168201915b5093979650505050505050565b604080518082019091526000815260606020820152600082815260016020818152604090922083518155918301518392918201906104cf90826107c6565b5050505050565b634e487b7160e01b600052604160045260246000fd5b60008060006060848603121561050157600080fd5b8335925060208401359150604084013567ffffffffffffffff8082111561052757600080fd5b818601915086601f83011261053b57600080fd5b81358181111561054d5761054d6104d6565b604051601f8201601f19908116603f01168101908382118183101715610575576105756104d6565b8160405282815289602084870101111561058e57600080fd5b8260208601602083013760006020848301015280955050505050509250925092565b6000602082840312156105c257600080fd5b81356001600160a01b03811681146105d957600080fd5b9392505050565b6000806000604084860312156105f557600080fd5b83359250602084013567ffffffffffffffff8082111561061457600080fd5b818601915086601f83011261062857600080fd5b81358181111561063757600080fd5b87602082850101111561064957600080fd5b6020830194508093505050509250925092565b60006020828403121561066e57600080fd5b5035919050565b6000815180845260005b8181101561069b5760208185018101518683018201520161067f565b818111156106ad576000602083870101525b50601f01601f19169290920160200192915050565b8281526040602082015260006106db6040830184610675565b949350505050565b6020815281516020820152600060208301516040808401526106db6060840182610675565b6020815260006105d96020830184610675565b6000806040838503121561072e57600080fd5b50508035926020909101359150565b600181811c9082168061075157607f821691505b60208210810361077157634e487b7160e01b600052602260045260246000fd5b50919050565b601f8211156107c157600081815260208120601f850160051c8101602086101561079e5750805b601f850160051c820191505b818110156107bd578281556001016107aa565b5050505b505050565b815167ffffffffffffffff8111156107e0576107e06104d6565b6107f4816107ee845461073d565b84610777565b602080601f83116001811461082957600084156108115750858301515b600019600386901b1c1916600185901b1785556107bd565b600085815260208120601f198616915b8281101561085857888601518255948401946001909101908401610839565b50858210156108765787850151600019600388901b60f8161c191681555b5050505050600190811b01905550565b67ffffffffffffffff83111561089e5761089e6104d6565b6108b2836108ac835461073d565b83610777565b6000601f8411600181146108e657600085156108ce5750838201355b600019600387901b1c1916600186901b1783556104cf565b600083815260209020601f19861690835b8281101561091757868501358255602094850194600190920191016108f7565b50868210156109345760001960f88860031b161c19848701351681555b505060018560011b018355505050505056fea2646970667358221220b18176234b647296bba44f8fb6d6f08ae9d03a018288871ec95c1bd79068e41864736f6c634300080f0033",
    "sourcePath": "/home/user/Desktop/solidity-algorithm/contracts/xyz/MappingStructs.sol",
    "compiler": {
        "name": "solc",
        "version": "0.8.15+commit.e14f2714"
    },
    "functionHashes": {
        "getAllValue(uint256)": "9ccb957b",
        "getMapInsideAStruct(address)": "f9c3b027",
        "getStringValue(uint256)": "c0c116d5",
        "getUintValue(uint256)": "a6ffd600",
        "myMapping(uint256)": "7c668844",
        "nullifyStruct(uint256)": "f6d5692e",
        "setMapInsideAStruct(address)": "2a412f5a",
        "setMapping(uint256,uint256,string)": "18cb523e",
        "setOnlyString(uint256,string)": "5921f5f7",
        "setOnlyUint(uint256,uint256)": "d02e87f7"
    },
    "gasEstimates": {
        "creation": {
            "codeDepositCost": "485600",
            "executionCost": "518",
            "totalCost": "486118"
        },
        "external": {
            "getAllValue(uint256)": "infinite",
            "getMapInsideAStruct(address)": "2662",
            "getStringValue(uint256)": "infinite",
            "getUintValue(uint256)": "2438",
            "myMapping(uint256)": "infinite",
            "nullifyStruct(uint256)": "infinite",
            "setMapInsideAStruct(address)": "24646",
            "setMapping(uint256,uint256,string)": "infinite",
            "setOnlyString(uint256,string)": "infinite",
            "setOnlyUint(uint256,uint256)": "22448"
        }
    }
}